:020000040000FA
:04000000CFEF0CF042
:10060000003F065B4F666D7D077F6F777C395E79B3
:1006100071554C44525358414259730011EC0DF03E
:100620004FEC0DF0D7EC0AF0F9EC0DF020EE80F075
:1006300011EE00F0670EDBCFE3FFE806FCE221EEEF
:1006400068F0670EDE6AE806FDE2000E0101DF6F6A
:10065000000EDE6F000EDD6F640EDC6F000ED56FD6
:10066000000ED46F100ED66F000ED76F000ED86F2D
:10067000000ED96F000ED06F000ED16F000ED26F3A
:10068000000ED36FDAEC09F0F4EC0DF00150196EA6
:1006900002501A6E1B6A1C6A0101D65119180FE12B
:1006A000D7511A180CE1D8511B1809E1D9511C185F
:1006B000D8B45DEF03F05FEF03F0C5EF04F0F4ECA6
:1006C0000DF001C0D6F102C0D7F10101D86BD96B92
:1006D000D6A16DEF03F06FEF03F092EF03F0DA5164
:1006E000DB11D8B476EF03F078EF03F086EF03F078
:1006F000000EDB6F000EDA6F010EDDEC0DF0000E68
:100700000101D56F010ED46F92EF03F0000EDB6F85
:10071000010EDA6F010EDDEC0DF0000E0101D56F58
:10072000000ED46FD6A797EF03F099EF03F00FEF09
:1007300004F0DA51DB11D8A4A0EF03F0A2EF03F02C
:100740000FEF04F0E1BFAEEF03F0E15109E10B0E52
:10075000E05DD8A0AEEF03F0B0EF03F00FEF04F0D0
:10076000F60EE025E06FFF0EE121E16F010EDDECFA
:100770000DF0030E046EE80E036EE0C101F0E1C15E
:1007800002F075EC0AF001C009F002C00AF0000E98
:100790000C6E0A0E0B6E89EC0BF00950300FCEEC8C
:1007A0000DF0000E046E640E036EE0C101F0E1C1B5
:1007B00002F075EC0AF001C009F002C00AF0000E68
:1007C0000C6E0A0E0B6E89EC0BF00950300FCEEC5C
:1007D0000DF0000E046E0A0E036EE0C101F0E1C1DF
:1007E00002F075EC0AF001C009F002C00AF0000E38
:1007F0000C6E0A0E0B6E89EC0BF00950300FCEEC2C
:100800000DF0E0C109F0E1C10AF0000E0C6E0A0E15
:100810000B6E89EC0BF00950300FCEEC0DF001019E
:10082000D6A315EF04F017EF04F0C5EF04F0DA518A
:10083000DB11D8A41EEF04F020EF04F094EF04F0D5
:100840000A0EE025196E000EE1211A6E1950DC5DCA
:10085000DD51800A1B6E1A50800A1B58D8A033EF56
:1008600004F035EF04F094EF04F00A0EE025E06F99
:10087000000EE121E16F010EDDEC0DF0030E046EC0
:10088000E80E036EE0C101F0E1C102F075EC0AF080
:1008900001C009F002C00AF0000E0C6E0A0E0B6EC9
:1008A00089EC0BF00950300FCEEC0DF0000E046E09
:1008B000640E036EE0C101F0E1C102F075EC0AF0D4
:1008C00001C009F002C00AF0000E0C6E0A0E0B6E99
:1008D00089EC0BF00950300FCEEC0DF0000E046ED9
:1008E0000A0E036EE0C101F0E1C102F075EC0AF0FE
:1008F00001C009F002C00AF0000E0C6E0A0E0B6E69
:1009000089EC0BF00950300FCEEC0DF0E0C109F08E
:10091000E1C10AF0000E0C6E0A0E0B6E89EC0BF0B2
:100920000950300FCEEC0DF00101DA51DB11D8B4D3
:100930009CEF04F09EEF04F0C5EF04F0DFBFACEFD6
:1009400004F0DF5107E1150EDE5DD8B0AAEF04F028
:10095000ACEF04F0C5EF04F0000E0F6E010E106E48
:10096000680E116E010E126ED0C113F0D1C114F0D9
:10097000D2C115F0D3C116F042EC08F00101DE51EE
:100980000F24DE6FDF511020DF6FDA51DB11D8B496
:10099000CCEF04F0CEEF04F032EF05F0000E086E5D
:1009A000040E076E31EC0BF0C00EDDEC0DF0030E03
:1009B000046EE80E036EDEC101F0DFC102F075ECDB
:1009C0000AF001C009F002C00AF0000E0C6E0A0E17
:1009D0000B6E89EC0BF00950300FCEEC0DF0000ED1
:1009E000046E640E036EDEC101F0DFC102F075EC2F
:1009F0000AF001C009F002C00AF0000E0C6E0A0EE7
:100A00000B6E89EC0BF00950300FCEEC0DF0000EA0
:100A1000046E0A0E036EDEC101F0DFC102F075EC58
:100A20000AF001C009F002C00AF0000E0C6E0A0EB6
:100A30000B6E89EC0BF00950300FCEEC0DF0DEC1DF
:100A400009F0DFC10AF0000E0C6E0A0E0B6E89EC85
:100A50000BF00950300FCEEC0DF0800EDDEC0DF0F8
:100A6000E9EF05F0C00EDDEC0DF0030E046EE80EAC
:100A7000036EDCC101F0DDC102F075EC0AF001C0CB
:100A800009F002C00AF0000E0C6E0A0E0B6E89EC23
:100A90000BF00950300FCEEC0DF0000E046E640E1A
:100AA000036EDCC101F0DDC102F075EC0AF001C09B
:100AB00009F002C00AF0000E0C6E0A0E0B6E89ECF3
:100AC0000BF00950300FCEEC0DF0000E046E0A0E44
:100AD000036EDCC101F0DDC102F075EC0AF001C06B
:100AE00009F002C00AF0000E0C6E0A0E0B6E89ECC3
:100AF0000BF00950300FCEEC0DF0DCC109F0DDC178
:100B00000AF0000E0C6E0A0E0B6E89EC0BF0095009
:100B1000300FCEEC0DF0800EDDEC0DF0680E016EA6
:100B2000010E026EADEC0CF00101D451D511D8B418
:100B30009CEF05F09EEF05F0E9EF05F0DFBFACEFAD
:100B400005F0DF5107E1160EDE5DD8B0AAEF05F023
:100B5000ACEF05F0BAEF05F0DFBFBAEF05F0DF51FB
:100B600007E1120EDE5DD8B0B8EF05F0BAEF05F080
:100B7000C9EF05F0000E086E010E076E31EC0BF0A8
:100B80000101E051DC5DDC6FE151DD59DD6FDCEF2F
:100B900005F0E0C119F0E1C11AF0D89019361A3603
:100BA000DC511924DC6FDD511A20DD6F000E086E58
:100BB000020E076E31EC0BF0000E0101E16F000E2A
:100BC000E06F000EDF6F000EDE6F000ED56F000EBF
:100BD000D46F010E0101D027000ED123D223D323DD
:100BE00042EF03F000EF00F002BE02EF06F0025009
:100BF00007E1080E015CD8B000EF06F002EF06F046
:100C00002CEF06F003500410D8B409EF06F00BEFF8
:100C100006F01BEF06F001C005F0010E066E052A76
:100C200014EF06F0D8900636052E12EF06F00650A7
:100C300092121AEF07F001C005F0010E066E052AA8
:100C400024EF06F0D8900636052E22EF06F0065067
:100C5000FF0A92161AEF07F002BE3AEF06F00250B2
:100C600007E1100E015CD8B038EF06F03AEF06F05D
:100C700068EF06F003500410D8B441EF06F043EFDC
:100C800006F055EF06F001C005F0F80E0526010E3E
:100C9000066E052A4EEF06F0D8900636052E4CEF6C
:100CA00006F0065093121AEF07F001C005F0F80E97
:100CB0000526010E066E052A60EF06F0D89006366E
:100CC000052E5EEF06F00650FF0A93161AEF07F0A6
:100CD00002BE76EF06F0025007E1180E015CD8B0B4
:100CE00074EF06F076EF06F0A4EF06F00350041060
:100CF000D8B47DEF06F07FEF06F091EF06F001C06B
:100D000005F0F00E0526010E066E052A8AEF06F0A4
:100D1000D8900636052E88EF06F0065094121AEF8A
:100D200007F001C005F0F00E0526010E066E052A3B
:100D30009CEF06F0D8900636052E9AEF06F0065086
:100D4000FF0A94161AEF07F002BEB2EF06F0025047
:100D500007E1200E015CD8B0B0EF06F0B2EF06F06C
:100D6000E0EF06F003500410D8B4B9EF06F0BBEF83
:100D700006F0CDEF06F001C005F0E80E0526010EE5
:100D8000066E052AC6EF06F0D8900636052EC4EF8B
:100D900006F0065095121AEF07F001C005F0E80EB4
:100DA0000526010E066E052AD8EF06F0D890063605
:100DB000052ED6EF06F00650FF0A95161AEF07F03B
:100DC00002BEEEEF06F0025007E1280E015CD8B03B
:100DD000ECEF06F0EEEF06F01AEF07F00350041008
:100DE000D8B4F5EF06F0F7EF06F009EF07F001C011
:100DF00005F0E00E0526010E066E052A02EF07F04B
:100E0000D8900636052E00EF07F0065096121AEF1E
:100E100007F001C005F0E00E0526010E066E052A5A
:100E200014EF07F0D8900636052E12EF07F00650A3
:100E3000FF0A9616120002BE29EF07F0025007E1E2
:100E4000080E015CD8B027EF07F029EF07F053EF49
:100E500007F003500410D8B430EF07F032EF07F07A
:100E600042EF07F001C005F0010E066E052A3BEFC8
:100E700007F0D8900636052E39EF07F0065080129D
:100E800041EF08F001C005F0010E066E052A4BEF98
:100E900007F0D8900636052E49EF07F00650FF0AF6
:100EA000801641EF08F002BE61EF07F0025007E143
:100EB000100E015CD8B05FEF07F061EF07F08FEF25
:100EC00007F0F80E0126FF0E022203500410D8B4DA
:100ED0006CEF07F06EEF07F07EEF07F001C005F052
:100EE000010E066E052A77EF07F0D8900636052E1C
:100EF00075EF07F00650811241EF08F001C005F0D0
:100F0000010E066E052A87EF07F0D8900636052EEB
:100F100085EF07F00650FF0A811641EF08F002BE88
:100F20009DEF07F0025007E1180E015CD8B09BEF6F
:100F300007F09DEF07F0CBEF07F0F00E0126FF0E54
:100F4000022203500410D8B4A8EF07F0AAEF07F06C
:100F5000BAEF07F001C005F0010E066E052AB3EFE7
:100F600007F0D8900636052EB1EF07F00650821232
:100F700041EF08F001C005F0010E066E052AC3EF2F
:100F800007F0D8900636052EC1EF07F00650FF0A8D
:100F9000821641EF08F002BED9EF07F0025007E1D8
:100FA000200E015CD8B0D7EF07F0D9EF07F007EFBC
:100FB00008F0E80E0126FF0E022203500410D8B4F8
:100FC000E4EF07F0E6EF07F0F6EF07F001C005F0F9
:100FD000010E066E052AEFEF07F0D8900636052EB3
:100FE000EDEF07F00650831241EF08F001C005F065
:100FF000010E066E052AFFEF07F0D8900636052E83
:10100000FDEF07F00650FF0A831641EF08F002BE1D
:1010100015EF08F0025007E1280E015CD8B013EF7D
:1010200008F015EF08F041EF08F0E00E0126FF0E82
:10103000022203500410D8B420EF08F022EF08F089
:1010400032EF08F001C005F0010E066E052A2BEF05
:1010500008F0D8900636052E29EF08F006508412C5
:1010600041EF08F001C005F0010E066E052A3BEFC6
:1010700008F0D8900636052E39EF08F00650FF0A22
:10108000841612005FEF08F0D8901334016E143408
:10109000026E1534036E1634046E340E056E000EA7
:1010A000066E000E076E000E086EE1EC0BF001C03C
:1010B0000AF002C00BF0BDEC0DF0ECEC0DF013C02B
:1010C00001F014C002F015C003F016C004F0340E95
:1010D000056E000E066E000E076E000E086EE1EC47
:1010E0000BF0D8900136023601501124D96E02500F
:1010F0001220DA6EDE50DE10D8A481EF08F083EF04
:1011000008F044EF08F013C001F014C002F015C05D
:1011100003F016C004F0340E056E000E066E000ECD
:10112000076E000E086EE1EC0BF0D8900136023627
:1011300001500F24D96E02501020DA6EDE04DE104A
:10114000D8A4A5EF08F0A7EF08F0B3EF08F0310E30
:10115000CEEC0DF0300ECEEC0DF0000E106E0A0E3F
:101160000F6E24EF09F013C001F014C002F015C097
:1011700003F016C004F0340E056E000E066E000E6D
:10118000076E000E086EE1EC0BF0D89001360236C7
:1011900001500F24D96E02501020DA6E010EDBBE12
:1011A000DCEF08F0010EDB5009E10A0EDE5CD8A08E
:1011B000DCEF08F0DEEF08F0E6EF08F0310ECEECE1
:1011C0000DF0300ECEEC0DF0ADEF08F013C001F0D5
:1011D00014C002F015C003F016C004F0340E056E02
:1011E000000E066E000E076E000E086EE1EC0BF0AE
:1011F000D8900136023601500F24D96E02501020CB
:10120000DA6EDF50300FCEEC0DF013C001F014C0D9
:1012100002F015C003F016C004F0340E056E000E87
:10122000066E000E076E000E086EE1EC0BF0D89013
:101230000136023601500F24D96E02501020DA6EAA
:10124000DECF0FF0DDCF10F0120002BE33EF09F059
:10125000025007E1080E015CD8B031EF09F033EF1E
:1012600009F047EF09F001C003F0010E046E032AF4
:101270003CEF09F0D8900436032E3AEF09F0045001
:101280008014056E0550016E026AD9EF09F002BEA6
:1012900055EF09F0025007E1100E015CD8B053EF92
:1012A00009F055EF09F06BEF09F001C003F0F80EFB
:1012B0000326010E046E032A60EF09F0D89004366D
:1012C000032E5EEF09F004508114056E0550016E87
:1012D000026AD9EF09F002BE79EF09F0025007E186
:1012E000180E015CD8B077EF09F079EF09F08FEFB5
:1012F00009F001C003F0F00E0326010E046E032A6C
:1013000084EF09F0D8900436032E82EF09F00450E0
:101310008214056E0550016E026AD9EF09F002BE13
:101320009DEF09F0025007E1200E015CD8B09BEF61
:1013300009F09DEF09F0B3EF09F001C003F0E80EEA
:101340000326010E046E032AA8EF09F0D890043694
:10135000032EA6EF09F004508314056E0550016EAC
:10136000026AD9EF09F002BEC1EF09F0025007E1AD
:10137000280E015CD8B0BFEF09F0C1EF09F0D7EF3C
:1013800009F001C003F0E00E0326010E046E032AEB
:10139000CCEF09F0D8900436032ECAEF09F00450C0
:1013A0008414056E0550016E026AD9EF09F00168D8
:1013B00002681200000E206E000E1F6E000E0E6EF0
:1013C000000E0D6E0EBEEEEF09F00E5009E1050E97
:1013D0000D5CD8A0EEEF09F0F0EF09F0F2EF09F0A4
:1013E00053EF0AF00DC00AF0030E0A26010E0B6E31
:1013F000000E0C6E0A2A00EF0AF0D8900B360C365D
:101400000A2EFDEF09F00BC007F00CC008F086ECC7
:101410000CF0000E026E0A0E016E25EC09F0015070
:101420000210D8B416EF0AF018EF0AF02BEF0AF00A
:101430000DC00AF0010E0B6E000E0C6E0A2A24EF8E
:101440000AF0D8900B360C360A2E21EF0AF00B501A
:101450001F120C502012000E026E090E016E25ECB8
:1014600009F001500210D8B438EF0AF03AEF0AF050
:101470004FEF0AF00DC00AF0050E0A26010E0B6EA2
:10148000000E0C6E0A2A48EF0AF0D8900B360C3684
:101490000A2E45EF0AF00B501F120C5020120D4A75
:1014A0000E2AE2EF09F01F501D1807E120501E1808
:1014B000D8A45DEF0AF05FEF0AF062EF0AF02806A9
:1014C00068EF0AF0010E286E1FC01DF020C01EF04C
:1014D0002850D8A46EEF0AF070EF0AF074EF0AF00B
:1014E0001DC021F01EC022F01200000E066E04BEC8
:1014F0007EEF0AF07CEF0AF084EF0AF0036C041E22
:10150000D8B0042A010E066E02BE8BEF0AF089EFF6
:101510000AF091EF0AF0016C021ED8B0022A010E07
:10152000061A000E086E000E076E03500410D8B4A1
:101530009CEF0AF09EEF0AF0C6EF0AF0010E056E6E
:10154000A6EF0AF0D89003360436052A04AEABEFB6
:101550000AF0ADEF0AF0A2EF0AF0D890073608368D
:101560000350015C04500258D8A0B9EF0AF0BBEF59
:101570000AF0C0EF0AF00350015E0450025A0780DF
:10158000D89004320332052EADEF0AF00650D8B4DD
:10159000CCEF0AF0CEEF0AF0D2EF0AF0076C081E8B
:1015A000D8B0082A07C001F008C002F01200000EEF
:1015B000026E1C0E016E000E046E000E036EF4EC43
:1015C00005F0000E026E1D0E016E000E046E000E80
:1015D000036EF4EC05F030EC0DF0000E026E0F0E11
:1015E000016E68EC0DF0000E0B6E000E0A6E030E1D
:1015F000AAEC0DF0000E026E050E016E68EC0DF007
:10160000000E0B6E000E0A6E030EAAEC0DF0000E1B
:10161000026EA00E016EFDEC0DF0000E0B6E000EC2
:101620000A6E030EAAEC0DF0000E026EA00E016E03
:10163000FDEC0DF0000E0B6E000E0A6E020EAAEC11
:101640000DF0000E026E0A0E016E68EC0DF0280E11
:10165000DDEC0DF00C0EDDEC0DF0010EDDEC0DF00F
:10166000120007A036EF0BF038EF0BF044EF0BF051
:10167000000E026E180E016E000E046E010E036E57
:101680001BEC07F04EEF0BF0000E026E180E016E11
:10169000000E046E000E036E1BEC07F007A253EF62
:1016A0000BF055EF0BF061EF0BF0000E026E190E10
:1016B000016E000E046E010E036E1BEC07F06BEF63
:1016C0000BF0000E026E190E016E000E046E000E7D
:1016D000036E1BEC07F007A470EF0BF072EF0BF03A
:1016E0007EEF0BF0000E026E1A0E016E000E046EFD
:1016F000010E036E1BEC07F088EF0BF0000E026E7C
:101700001A0E016E000E046E000E036E1BEC07F045
:101710001200000E0E6E0ABE92EF0BF090EF0BF06F
:1017200098EF0BF0096C0A1ED8B00A2A010E0E6E53
:101730000CBE9FEF0BF09DEF0BF0A3EF0BF00B6CCB
:101740000C1ED8B00C2A0B500C10D8B4AAEF0BF01A
:10175000ACEF0BF0D0EF0BF0010E0D6EB4EF0BF011
:10176000D8900B360C360D2A0CAEB9EF0BF0BBEF50
:101770000BF0B0EF0BF00B50095C0C500A58D8A0DE
:10178000C4EF0BF0C6EF0BF0CAEF0BF00B50095E85
:101790000C500A5AD8900C320B320D2EBBEF0BF0C6
:1017A0000E50D8B4D6EF0BF0D8EF0BF0DCEF0BF007
:1017B000096C0A1ED8B00A2A09C009F00AC00AF04A
:1017C00012000550061007100810D8B4EAEF0BF00D
:1017D000ECEF0BF01CEF0CF0010E096EF6EF0BF0C6
:1017E000D8900536063607360836092A08AEFBEFCC
:1017F0000BF0FDEF0BF0F0EF0BF00550015C065025
:1018000002580750035808500458D8A00AEF0CF0AB
:101810000CEF0CF014EF0CF00550015E0650025A6C
:101820000750035A0850045AD8900832073206323B
:101830000532092EFDEF0BF001C001F002C002F0ED
:1018400003C003F004C004F0120001000100010015
:101850000100020002000200020003000300030076
:101860000300040004000400040005000500050056
:101870000500060006000600060007000700070036
:101880000700080008000800080009000900090016
:1018900009000A000A000A000A000B000B000B00F6
:1018A0000B000C000C000C000C000D000D000D00D6
:1018B0000D000D6E0DC00CF00C3A0F0E0C160C50F6
:1018C000076E086A86EC0CF0000E026E1D0E016EAB
:1018D0000AC003F00BC004F01BEC07F0F0EC0CF0B6
:1018E0000DC00CF00F0E0C160C50076E086A86EC3B
:1018F0000CF0000E026E1D0E016E0AC003F00BC04C
:1019000004F01BEC07F0F0EC0CF01200000E026E7D
:10191000080E016E000E046E000E036E1BEC07F045
:10192000000E096E000E026E1E0E016E800E071470
:10193000036E046A1BEC07F095EC0DF0D8900736A7
:101940000836092A070E0964A8EF0CF0AAEF0CF07C
:1019500092EF0CF080EC0DF01200000E046E000E01
:10196000036ED8900334D96E0434DA6E0150D92650
:101970000250DA22000EDE6E000EDD6E034A042AEB
:1019800004BECCEF0CF0045009E1340E035CD8A087
:10199000CCEF0CF0CEEF0CF0B1EF0CF012004A0ED1
:1019A000F66E180EF76E000EF86E00EE80F010EE78
:1019B00068F00900F5CFEEFFE550E150FAE102EEE4
:1019C00000F0680EEE6AE806FDE100EE1DF00C0E78
:1019D000EE6AE806FDE1000EF86E00010EEF03F07E
:1019E000000E026E1C0E016E000E046E010E036EE0
:1019F0001BEC07F0000E026E050E016EFDEC0DF003
:101A0000000E026E1C0E016E000E046E000E036EC0
:101A10001BEC07F0000E026E050E016EFDEC0DF0E2
:101A20001200000E026E180E016E000E046E000E03
:101A3000036EF4EC05F0000E026E190E016E000E3E
:101A4000046E000E036EF4EC05F0000E026E1A0E2A
:101A5000016E000E046E000E036EF4EC05F0120031
:101A6000000E026E1F0E016E000E046E000E036E5D
:101A7000F4EC05F0000E026E080E016E000E046E0E
:101A8000000E036EF4EC05F0000E026E1E0E016EE9
:101A9000000E046E000E036EF4EC05F0120030EC44
:101AA0000DF0000E026E0A0E016E000E046E010EA5
:101AB000036EF4EC05F0000E026E090E016E000ECE
:101AC000046E010E036EF4EC05F00C0EC16E1200F4
:101AD000000E056E000E046E70EF0DF0044A052A2C
:101AE0000150045C0550800A036E0250800A0358BE
:101AF000D8A07DEF0DF07FEF0DF06EEF0DF012002E
:101B0000000E026E1F0E016E000E046E010E036EBB
:101B10001BEC07F0000E026E1F0E016E000E046E2D
:101B2000000E036E1BEC07F01200000E026E080E92
:101B3000016E000E046E010E036E1BEC07F0000E2A
:101B4000026E080E016E000E046E000E036E1BEC9A
:101B500007F012000C6E0CC007F0086A86EC0CF05F
:101B6000000E026E1D0E016E0AC003F00BC004F0E1
:101B70001BEC07F0F0EC0CF01200D8900A340C6E5D
:101B80000B340D6E0C1E0D1E320E0C5E000E0D5A27
:101B90000D50D76E0CC0D6FFF29412000E6E000EE0
:101BA0000B6E010E0A6E0E5059EC0CF0000E026E18
:101BB000500E016EFDEC0DF012000E6E000E0B6E5D
:101BC000000E0A6E0E5059EC0CF0000E026E020E62
:101BD000016E68EC0DF01200F2A4F1EF0DF0F3EFDE
:101BE0000DF0ECEF0DF0120021C001F022C002F068
:0C1BF0001200080ED56ED58E12001200F7
:020000040020DA
:08000000FFFFFFFFFFFFFFFF00
:020000040030CA
:0E000000FF027100FF8380FF0FC00FE00F4072
:00000001FF
