:020000040000FA
:04000000E4EF0CF02D
:10060000003F065B4F666D7D077F6F777C395E79B3
:1006100071554C44525358414259730026EC0DF029
:1006200064EC0DF0ECEC0AF021EC0EF020EE80F022
:1006300011EE00F0670EDBCFE3FFE806FCE221EEEF
:1006400068F0670EDE6AE806FDE2000E0101DF6F6A
:10065000000EDE6F000EDD6F640EDC6F000ED56FD6
:10066000000ED46F100ED66F000ED76F000ED86F2D
:10067000000ED96F000ED06F000ED16F000ED26F3A
:10068000000ED36FEFEC09F01CEC0EF00150196E68
:1006900002501A6E1B6A1C6A0101D65119180FE12B
:1006A000D7511A180CE1D8511B1809E1D9511C185F
:1006B000D8B45DEF03F05FEF03F0C5EF04F01CEC7E
:1006C0000EF001C0D6F102C0D7F10101D86BD96B91
:1006D000D6A16DEF03F06FEF03F092EF03F0DA5164
:1006E000DB11D8B476EF03F078EF03F086EF03F078
:1006F000000EDB6F000EDA6F010E05EC0EF0000E3F
:100700000101D56F010ED46F92EF03F0000EDB6F85
:10071000010EDA6F010E05EC0EF0000E0101D56F2F
:10072000000ED46FD6A797EF03F099EF03F00FEF09
:1007300004F0DA51DB11D8A4A0EF03F0A2EF03F02C
:100740000FEF04F0E1BFAEEF03F0E15109E10B0E52
:10075000E05DD8A0AEEF03F0B0EF03F00FEF04F0D0
:10076000F60EE025E06FFF0EE121E16F010E05ECD2
:100770000EF0030E046EE80E036EE0C101F0E1C15D
:1007800002F08AEC0AF001C009F002C00AF0000E83
:100790000C6E0A0E0B6E9EEC0BF00950300FF6EC4F
:1007A0000DF0000E046E640E036EE0C101F0E1C1B5
:1007B00002F08AEC0AF001C009F002C00AF0000E53
:1007C0000C6E0A0E0B6E9EEC0BF00950300FF6EC1F
:1007D0000DF0000E046E0A0E036EE0C101F0E1C1DF
:1007E00002F08AEC0AF001C009F002C00AF0000E23
:1007F0000C6E0A0E0B6E9EEC0BF00950300FF6ECEF
:100800000DF0E0C109F0E1C10AF0000E0C6E0A0E15
:100810000B6E9EEC0BF00950300FF6EC0DF0010161
:10082000D6A315EF04F017EF04F0C5EF04F0DA518A
:10083000DB11D8A41EEF04F020EF04F094EF04F0D5
:100840000A0EE025196E000EE1211A6E1950DC5DCA
:10085000DD51800A1B6E1A50800A1B58D8A033EF56
:1008600004F035EF04F094EF04F00A0EE025E06F99
:10087000000EE121E16F010E05EC0EF0030E046E97
:10088000E80E036EE0C101F0E1C102F08AEC0AF06B
:1008900001C009F002C00AF0000E0C6E0A0E0B6EC9
:1008A0009EEC0BF00950300FF6EC0DF0000E046ECC
:1008B000640E036EE0C101F0E1C102F08AEC0AF0BF
:1008C00001C009F002C00AF0000E0C6E0A0E0B6E99
:1008D0009EEC0BF00950300FF6EC0DF0000E046E9C
:1008E0000A0E036EE0C101F0E1C102F08AEC0AF0E9
:1008F00001C009F002C00AF0000E0C6E0A0E0B6E69
:100900009EEC0BF00950300FF6EC0DF0E0C109F051
:10091000E1C10AF0000E0C6E0A0E0B6E9EEC0BF09D
:100920000950300FF6EC0DF00101DA51DB11D8B4AB
:100930009CEF04F09EEF04F0C5EF04F0DFBFACEFD6
:1009400004F0DF5107E1150EDE5DD8B0AAEF04F028
:10095000ACEF04F0C5EF04F0000E0F6E010E106E48
:10096000680E116E010E126ED0C113F0D1C114F0D9
:10097000D2C115F0D3C116F054EC08F00101DE51DC
:100980000F24DE6FDF511020DF6FDA51DB11D8B496
:10099000CCEF04F0CEEF04F032EF05F0000E086E5D
:1009A000040E076E46EC0BF0C00E05EC0EF0030EC5
:1009B000046EE80E036EDEC101F0DFC102F08AECC6
:1009C0000AF001C009F002C00AF0000E0C6E0A0E17
:1009D0000B6E9EEC0BF00950300FF6EC0DF0000E94
:1009E000046E640E036EDEC101F0DFC102F08AEC1A
:1009F0000AF001C009F002C00AF0000E0C6E0A0EE7
:100A00000B6E9EEC0BF00950300FF6EC0DF0000E63
:100A1000046E0A0E036EDEC101F0DFC102F08AEC43
:100A20000AF001C009F002C00AF0000E0C6E0A0EB6
:100A30000B6E9EEC0BF00950300FF6EC0DF0DEC1A2
:100A400009F0DFC10AF0000E0C6E0A0E0B6E9EEC70
:100A50000BF00950300FF6EC0DF0800E05EC0EF0A7
:100A6000FBEF05F0C00E05EC0EF0030E046EE80E71
:100A7000036EDCC101F0DDC102F08AEC0AF001C0B6
:100A800009F002C00AF0000E0C6E0A0E0B6E9EEC0E
:100A90000BF00950300FF6EC0DF0000E046E640EF2
:100AA000036EDCC101F0DDC102F08AEC0AF001C086
:100AB00009F002C00AF0000E0C6E0A0E0B6E9EECDE
:100AC0000BF00950300FF6EC0DF0000E046E0A0E1C
:100AD000036EDCC101F0DDC102F08AEC0AF001C056
:100AE00009F002C00AF0000E0C6E0A0E0B6E9EECAE
:100AF0000BF00950300FF6EC0DF0DCC109F0DDC150
:100B00000AF0000E0C6E0A0E0B6E9EEC0BF00950F4
:100B1000300FF6EC0DF0800E05EC0EF0680E016E55
:100B2000010E026EC2EC0CF00101D451D511D8B403
:100B30009CEF05F09EEF05F0FBEF05F0DFBFACEF9B
:100B400005F0DF5107E1160EDE5DD8B0AAEF05F023
:100B5000ACEF05F0BAEF05F0DFBFBAEF05F0DF51FB
:100B600007E1120EDE5DD8B0B8EF05F0BAEF05F080
:100B7000C9EF05F0000E086E010E076E46EC0BF093
:100B80000101E051DC5DDC6FE151DD59DD6FEEEF1D
:100B900005F0000E046E150E036EDEC101F0DFC11C
:100BA00002F08AEC0AF0010E0124096E000E022008
:100BB0000A6ED8900101E0350B6EE1350C6ED2EC77
:100BC0000DF00101DC510924DC6FDD510A20DD6FDD
:100BD000000E086E020E076E46EC0BF0000E0101CF
:100BE000E16F000EE06F000EDF6F000EDE6F000E93
:100BF000D56F000ED46F010E0101D027000ED12356
:100C0000D223D32342EF03F000EF00F002BE14EF33
:100C100006F0025007E1080E015CD8B012EF06F0B2
:100C200014EF06F03EEF06F003500410D8B41BEFAB
:100C300006F01DEF06F02DEF06F001C005F0010EE5
:100C4000066E052A26EF06F0D8900636052E24EF0C
:100C500006F0065092122CEF07F001C005F0010ECD
:100C6000066E052A36EF06F0D8900636052E34EFCC
:100C700006F00650FF0A92162CEF07F002BE4CEF6A
:100C800006F0025007E1100E015CD8B04AEF06F002
:100C90004CEF06F07AEF06F003500410D8B453EF8F
:100CA00006F055EF06F067EF06F001C005F0F80E0C
:100CB0000526010E066E052A60EF06F0D89006366E
:100CC000052E5EEF06F0065093122CEF07F001C0E0
:100CD00005F0F80E0526010E066E052A72EF06F0E5
:100CE000D8900636052E70EF06F00650FF0A9316D0
:100CF0002CEF07F002BE88EF06F0025007E1180E55
:100D0000015CD8B086EF06F088EF06F0B6EF06F08B
:100D100003500410D8B48FEF06F091EF06F0A3EF64
:100D200006F001C005F0F00E0526010E066E052A3C
:100D30009CEF06F0D8900636052E9AEF06F0065086
:100D400094122CEF07F001C005F0F00E0526010EFD
:100D5000066E052AAEEF06F0D8900636052EACEFEB
:100D600006F00650FF0A94162CEF07F002BEC4EFFF
:100D700006F0025007E1200E015CD8B0C2EF06F089
:100D8000C4EF06F0F2EF06F003500410D8B4CBEF36
:100D900006F0CDEF06F0DFEF06F001C005F0E80E3B
:100DA0000526010E066E052AD8EF06F0D890063605
:100DB000052ED6EF06F0065095122CEF07F001C075
:100DC00005F0E80E0526010E066E052AEAEF06F08C
:100DD000D8900636052EE8EF06F00650FF0A951665
:100DE0002CEF07F002BE00EF07F0025007E1280EDB
:100DF000015CD8B0FEEF06F000EF07F02CEF07F033
:100E000003500410D8B407EF07F009EF07F01BEF09
:100E100007F001C005F0E00E0526010E066E052A5A
:100E200014EF07F0D8900636052E12EF07F00650A3
:100E300096122CEF07F001C005F0E00E0526010E1A
:100E4000066E052A26EF07F0D8900636052E24EF09
:100E500007F00650FF0A9616120002BE3BEF07F09D
:100E6000025007E1080E015CD8B039EF07F03BEF04
:100E700007F065EF07F003500410D8B442EF07F015
:100E800044EF07F054EF07F001C005F0010E066EC5
:100E9000052A4DEF07F0D8900636052E4BEF07F0E8
:100EA0000650801253EF08F001C005F0010E066EE7
:100EB000052A5DEF07F0D8900636052E5BEF07F0A8
:100EC0000650FF0A801653EF08F002BE73EF07F0DA
:100ED000025007E1100E015CD8B071EF07F073EF1C
:100EE00007F0A1EF07F0F80E0126FF0E02220350D3
:100EF0000410D8B47EEF07F080EF07F090EF07F012
:100F000001C005F0010E066E052A89EF07F0D890A2
:100F10000636052E87EF07F00650811253EF08F0D2
:100F200001C005F0010E066E052A99EF07F0D89072
:100F30000636052E97EF07F00650FF0A811653EF8D
:100F400008F002BEAFEF07F0025007E1180E015C97
:100F5000D8B0ADEF07F0AFEF07F0DDEF07F0F00E20
:100F60000126FF0E022203500410D8B4BAEF07F096
:100F7000BCEF07F0CCEF07F001C005F0010E066EE4
:100F8000052AC5EF07F0D8900636052EC3EF07F007
:100F90000650821253EF08F001C005F0010E066EF4
:100FA000052AD5EF07F0D8900636052ED3EF07F0C7
:100FB0000650FF0A821653EF08F002BEEBEF07F06F
:100FC000025007E1200E015CD8B0E9EF07F0EBEF2B
:100FD00007F019EF08F0E80E0126FF0E0222035079
:100FE0000410D8B4F6EF07F0F8EF07F008EF08F0B8
:100FF00001C005F0010E066E052A01EF08F0D89039
:101000000636052EFFEF07F00650831253EF08F067
:1010100001C005F0010E066E052A11EF08F0D89008
:101020000636052E0FEF08F00650FF0A831653EF21
:1010300008F002BE27EF08F0025007E1280E015C1D
:10104000D8B025EF08F027EF08F053EF08F0E00ED6
:101050000126FF0E022203500410D8B432EF08F02C
:1010600034EF08F044EF08F001C005F0010E066E01
:10107000052A3DEF08F0D8900636052E3BEF08F024
:101080000650841253EF08F001C005F0010E066E01
:10109000052A4DEF08F0D8900636052E4BEF08F0E4
:1010A0000650FF0A8416120071EF08F0D89013342E
:1010B000016E1434026E1534036E1634046E340E51
:1010C000056E000E066E000E076E000E086EF6EC42
:1010D0000BF001C00AF002C00BF0E5EC0DF014ECCF
:1010E0000EF013C001F014C002F015C003F016C0DA
:1010F00004F0340E056E000E066E000E076E000E34
:10110000086EF6EC0BF0D89001360236015011242F
:10111000D96E02501220DA6EDE50DE10D8A493EFA2
:1011200008F095EF08F056EF08F013C001F014C076
:1011300002F015C003F016C004F0340E056E000E68
:10114000066E000E076E000E086EF6EC0BF0D890DF
:101150000136023601500F24D96E02501020DA6E8B
:10116000DE04DE10D8A4B7EF08F0B9EF08F0C5EF41
:1011700008F0310EF6EC0DF0300EF6EC0DF0000E2E
:10118000106E0A0E0F6E39EF09F013C001F014C093
:1011900002F015C003F016C004F0340E056E000E08
:1011A000066E000E076E000E086EF6EC0BF0D8907F
:1011B0000136023601500F24D96E02501020DA6E2B
:1011C000010EDBBEEEEF08F0010EDB5009E10A0E66
:1011D000DE5CD8A0EEEF08F0F0EF08F0F8EF08F0D2
:1011E000310EF6EC0DF0300EF6EC0DF0BFEF08F01E
:1011F000300EF6EC0DF013C001F014C002F015C073
:1012000003F016C004F0340E056E000E066E000EDC
:10121000076E000E086EF6EC0BF0D8900136023621
:1012200001500F24D96E02501020DA6EDF50300FBB
:10123000F6EC0DF013C001F014C002F015C003F07D
:1012400016C004F0340E056E000E066E000E076E1A
:10125000000E086EF6EC0BF0D89001360236015005
:101260000F24D96E02501020DA6EDECF0FF0DDCFE2
:1012700010F0120002BE48EF09F0025007E1080E1C
:10128000015CD8B046EF09F048EF09F05CEF09F0D7
:1012900001C003F0010E046E032A51EF09F0D8904B
:1012A0000436032E4FEF09F004508014056E0550EC
:1012B000016E026AEEEF09F002BE6AEF09F0025019
:1012C00007E1100E015CD8B068EF09F06AEF09F091
:1012D00080EF09F001C003F0F80E0326010E046E42
:1012E000032A75EF09F0D8900436032E73EF09F046
:1012F00004508114056E0550016E026AEEEF09F08C
:1013000002BE8EEF09F0025007E1180E015CD8B062
:101310008CEF09F08EEF09F0A4EF09F001C003F0A3
:10132000F00E0326010E046E032A99EF09F0D890FF
:101330000436032E97EF09F004508214056E055011
:10134000016E026AEEEF09F002BEB2EF09F0025040
:1013500007E1200E015CD8B0B0EF09F0B2EF09F060
:10136000C8EF09F001C003F0E80E0326010E046E79
:10137000032ABDEF09F0D8900436032EBBEF09F025
:1013800004508314056E0550016E026AEEEF09F0F9
:1013900002BED6EF09F0025007E1280E015CD8B07A
:1013A000D4EF09F0D6EF09F0ECEF09F001C003F03B
:1013B000E00E0326010E046E032AE1EF09F0D89037
:1013C0000436032EDFEF09F004508414056E055037
:1013D000016E026AEEEF09F0016802681200000E69
:1013E000206E000E1F6E000E0E6E000E0D6E0EBEF5
:1013F00003EF0AF00E5009E1050E0D5CD8A003EFD3
:101400000AF005EF0AF007EF0AF068EF0AF00DC0E6
:101410000AF0030E0A26010E0B6E000E0C6E0A2A4D
:1014200015EF0AF0D8900B360C360A2E12EF0AF0A0
:101430000BC007F00CC008F09BEC0CF0000E026E25
:101440000A0E016E3AEC09F001500210D8B42BEFED
:101450000AF02DEF0AF040EF0AF00DC00AF0010E7D
:101460000B6E000E0C6E0A2A39EF0AF0D8900B367C
:101470000C360A2E36EF0AF00B501F120C502012B9
:10148000000E026E090E016E3AEC09F001500210D6
:10149000D8B44DEF0AF04FEF0AF064EF0AF00DC038
:1014A0000AF0050E0A26010E0B6E000E0C6E0A2ABB
:1014B0005DEF0AF0D8900B360C360A2E5AEF0AF080
:1014C0000B501F120C5020120D4A0E2AF7EF09F094
:1014D0001F501D1807E120501E18D8A472EF0AF003
:1014E00074EF0AF077EF0AF028067DEF0AF0010E9C
:1014F000286E1FC01DF020C01EF02850D8A483EF16
:101500000AF085EF0AF089EF0AF01DC021F01EC035
:1015100022F01200000E066E04BE93EF0AF091EF67
:101520000AF099EF0AF0036C041ED8B0042A010EE9
:10153000066E02BEA0EF0AF09EEF0AF0A6EF0AF0D8
:10154000016C021ED8B0022A010E061A000E086EA7
:10155000000E076E03500410D8B4B1EF0AF0B3EFD9
:101560000AF0DBEF0AF0010E056EBBEF0AF0D8902F
:1015700003360436052A04AEC0EF0AF0C2EF0AF0C3
:10158000B7EF0AF0D890073608360350015C0450D4
:101590000258D8A0CEEF0AF0D0EF0AF0D5EF0AF04B
:1015A0000350015E0450025A0780D890043203327F
:1015B000052EC2EF0AF00650D8B4E1EF0AF0E3EFCF
:1015C0000AF0E7EF0AF0076C081ED8B0082A07C037
:1015D00001F008C002F01200000E026E1C0E016E37
:1015E000000E046E000E036E06EC06F0000E026E96
:1015F0001D0E016E000E046E000E036E06EC06F06A
:1016000045EC0DF0000E026E0F0E016E7DEC0DF03C
:10161000000E0B6E000E0A6E030EBFEC0DF0000EF6
:10162000026E050E016E7DEC0DF0000E0B6E000ECD
:101630000A6E030EBFEC0DF0000E026EA00E016EDE
:1016400025EC0EF0000E0B6E000E0A6E030EBFECC2
:101650000DF0000E026EA00E016E25EC0EF0000ED5
:101660000B6E000E0A6E020EBFEC0DF0000E026E45
:101670000A0E016E7DEC0DF0280E05EC0EF00C0E3E
:1016800005EC0EF0010E05EC0EF0120007A04BEF7A
:101690000BF04DEF0BF059EF0BF0000E026E180E31
:1016A000016E000E046E010E036E2DEC07F063EF69
:1016B0000BF0000E026E180E016E000E046E000E8E
:1016C000036E2DEC07F007A268EF0BF06AEF0BF04A
:1016D00076EF0BF0000E026E190E016E000E046E16
:1016E000010E036E2DEC07F080EF0BF0000E026E82
:1016F000190E016E000E046E000E036E2DEC07F045
:1017000007A485EF0BF087EF0BF093EF0BF0000EC3
:10171000026E1A0E016E000E046E010E036E2DECA9
:1017200007F09DEF0BF0000E026E1A0E016E000E18
:10173000046E000E036E2DEC07F01200000E0E6E0C
:101740000ABEA7EF0BF0A5EF0BF0ADEF0BF0096CA5
:101750000A1ED8B00A2A010E0E6E0CBEB4EF0BF0B2
:10176000B2EF0BF0B8EF0BF00B6C0C1ED8B00C2ADC
:101770000B500C10D8B4BFEF0BF0C1EF0BF0E5EF3E
:101780000BF0010E0D6EC9EF0BF0D8900B360C3636
:101790000D2A0CAECEEF0BF0D0EF0BF0C5EF0BF037
:1017A0000B50095C0C500A58D8A0D9EF0BF0DBEFB6
:1017B0000BF0DFEF0BF00B50095E0C500A5AD8907B
:1017C0000C320B320D2ED0EF0BF00E50D8B4EBEFE5
:1017D0000BF0EDEF0BF0F1EF0BF0096C0A1ED8B037
:1017E0000A2A09C009F00AC00AF0120005500610C2
:1017F00007100810D8B4FFEF0BF001EF0CF031EF39
:101800000CF0010E096E0BEF0CF0D8900536063681
:1018100007360836092A08AE10EF0CF012EF0CF06C
:1018200005EF0CF00550015C0650025807500358B4
:1018300008500458D8A01FEF0CF021EF0CF029EF4E
:101840000CF00550015E0650025A0750035A08502A
:10185000045AD8900832073206320532092E12EFA8
:101860000CF001C001F002C002F003C003F004C09C
:1018700004F012000100010001000100020002005A
:101880000200020003000300030003000400040040
:101890000400040005000500050005000600060020
:1018A0000600060007000700070007000800080000
:1018B0000800080009000900090009000A000A00E0
:1018C0000A000A000B000B000B000B000C000C00C0
:1018D0000C000C000D000D000D000D000D6E0DC074
:1018E0000CF00C3A0F0E0C160C50076E086A9BECAD
:1018F0000CF0000E026E1D0E016E0AC003F00BC04C
:1019000004F02DEC07F005EC0DF00DC00CF00F0EFF
:101910000C160C50076E086A9BEC0CF0000E026E61
:101920001D0E016E0AC003F00BC004F02DEC07F091
:1019300005EC0DF01200000E026E080E016E000E96
:10194000046E000E036E2DEC07F0000E096E000E03
:10195000026E1E0E016E800E0714036E046A2DECDB
:1019600007F0AAEC0DF0D89007360836092A070EC2
:101970000964BDEF0CF0BFEF0CF0A7EF0CF095EC95
:101980000DF01200000E046E000E036ED8900334AA
:10199000D96E0434DA6E0150D9260250DA22000ED4
:1019A000DE6E000EDD6E034A042A04BEE1EF0CF089
:1019B000045009E1340E035CD8A0E1EF0CF0E3EF32
:1019C0000CF0C6EF0CF01200740EF66E180EF76EE7
:1019D000000EF86E00EE80F010EE68F00900F5CF12
:1019E000EEFFE550E150FAE102EE00F0680EEE6A1B
:1019F000E806FDE100EE1DF00C0EEE6AE806FDE1E2
:101A0000000EF86E00010EEF03F0000E026E1C0EC9
:101A1000016E000E046E010E036E2DEC07F0000E39
:101A2000026E050E016E25EC0EF0000E026E1C0E0D
:101A3000016E000E046E000E036E2DEC07F0000E1A
:101A4000026E050E016E25EC0EF01200000E026E05
:101A5000180E016E000E046E000E036E06EC06F00A
:101A6000000E026E190E016E000E046E000E036E63
:101A700006EC06F0000E026E1A0E016E000E046EE9
:101A8000000E036E06EC06F01200000E026E1F0E32
:101A9000016E000E046E000E036E06EC06F0000EE2
:101AA000026E080E016E000E046E000E036E06EC50
:101AB00006F0000E026E1E0E016E000E046E000E89
:101AC000036E06EC06F0120045EC0DF0000E026EFF
:101AD0000A0E016E000E046E010E036E06EC06F097
:101AE000000E026E090E016E000E046E010E036EF2
:101AF00006EC06F00C0EC16E1200000E056E000E14
:101B0000046E85EF0DF0044A052A0150045C05506F
:101B1000800A036E0250800A0358D8A092EF0DF09D
:101B200094EF0DF083EF0DF01200000E026E1F0E09
:101B3000016E000E046E010E036E2DEC07F0000E18
:101B4000026E1F0E016E000E046E000E036E2DEC71
:101B500007F01200000E026E080E016E000E046EF9
:101B6000010E036E2DEC07F0000E026E080E016EE2
:101B7000000E046E000E036E2DEC07F012000C6ECA
:101B80000CC007F0086A9BEC0CF0000E026E1D0EF4
:101B9000016E0AC003F00BC004F02DEC07F005EC59
:101BA0000DF0120009500B02F3CF0DF0F4CF0EF040
:101BB00009500C02F3500E260A500B02F3500E2669
:101BC0000DC009F00EC00AF01200D8900A340C6E55
:101BD0000B340D6E0C1E0D1E320E0C5E000E0D5AD7
:101BE0000D50D76E0CC0D6FFF29412000E6E000E90
:101BF0000B6E010E0A6E0E506EEC0CF0000E026EB3
:101C0000500E016E25EC0EF012000E6E000E0B6EE3
:101C1000000E0A6E0E506EEC0CF0000E026E020EFC
:101C2000016E7DEC0DF01200F2A419EF0EF01BEF27
:101C30000EF014EF0EF0120021C001F022C002F0ED
:0C1C40001200080ED56ED58E12001200A6
:020000040020DA
:08000000FFFFFFFFFFFFFFFF00
:020000040030CA
:0E000000FF027100FF8380FF0FC00FE00F4072
:00000001FF
