:020000040000FA
:04000000E1EF0CF030
:10060000003F065B4F666D7D077F6F777C395E79B3
:1006100071554C44525358414259730023EC0DF02C
:1006200061EC0DF0E9EC0AF01EEC0EF020EE80F02B
:1006300011EE00F0670EDBCFE3FFE806FCE221EEEF
:1006400068F0670EDE6AE806FDE2000E0101DF6F6A
:10065000000EDE6F000EDD6F640EDC6F000ED56FD6
:10066000000ED46F100ED66F000ED76F000ED86F2D
:10067000000ED96F000ED06F000ED16F000ED26F3A
:10068000000ED36FECEC09F019EC0EF00150196E6E
:1006900002501A6E1B6A1C6A0101D65119180FE12B
:1006A000D7511A180CE1D8511B1809E1D9511C185F
:1006B000D8B45DEF03F05FEF03F0C5EF04F019EC81
:1006C0000EF001C0D6F102C0D7F10101D86BD96B91
:1006D000D6A16DEF03F06FEF03F092EF03F0DA5164
:1006E000DB11D8B476EF03F078EF03F086EF03F078
:1006F000000EDB6F000EDA6F010E02EC0EF0000E42
:100700000101D56F010ED46F92EF03F0000EDB6F85
:10071000010EDA6F010E02EC0EF0000E0101D56F32
:10072000000ED46FD6A797EF03F099EF03F00FEF09
:1007300004F0DA51DB11D8A4A0EF03F0A2EF03F02C
:100740000FEF04F0E1BFAEEF03F0E15109E10B0E52
:10075000E05DD8A0AEEF03F0B0EF03F00FEF04F0D0
:10076000F60EE025E06FFF0EE121E16F010E02ECD5
:100770000EF0030E046EE80E036EE0C101F0E1C15D
:1007800002F087EC0AF001C009F002C00AF0000E86
:100790000C6E0A0E0B6E9BEC0BF00950300FF3EC55
:1007A0000DF0000E046E640E036EE0C101F0E1C1B5
:1007B00002F087EC0AF001C009F002C00AF0000E56
:1007C0000C6E0A0E0B6E9BEC0BF00950300FF3EC25
:1007D0000DF0000E046E0A0E036EE0C101F0E1C1DF
:1007E00002F087EC0AF001C009F002C00AF0000E26
:1007F0000C6E0A0E0B6E9BEC0BF00950300FF3ECF5
:100800000DF0E0C109F0E1C10AF0000E0C6E0A0E15
:100810000B6E9BEC0BF00950300FF3EC0DF0010167
:10082000D6A315EF04F017EF04F0C5EF04F0DA518A
:10083000DB11D8A41EEF04F020EF04F094EF04F0D5
:100840000A0EE025196E000EE1211A6E1950DC5DCA
:10085000DD51800A1B6E1A50800A1B58D8A033EF56
:1008600004F035EF04F094EF04F00A0EE025E06F99
:10087000000EE121E16F010E02EC0EF0030E046E9A
:10088000E80E036EE0C101F0E1C102F087EC0AF06E
:1008900001C009F002C00AF0000E0C6E0A0E0B6EC9
:1008A0009BEC0BF00950300FF3EC0DF0000E046ED2
:1008B000640E036EE0C101F0E1C102F087EC0AF0C2
:1008C00001C009F002C00AF0000E0C6E0A0E0B6E99
:1008D0009BEC0BF00950300FF3EC0DF0000E046EA2
:1008E0000A0E036EE0C101F0E1C102F087EC0AF0EC
:1008F00001C009F002C00AF0000E0C6E0A0E0B6E69
:100900009BEC0BF00950300FF3EC0DF0E0C109F057
:10091000E1C10AF0000E0C6E0A0E0B6E9BEC0BF0A0
:100920000950300FF3EC0DF00101DA51DB11D8B4AE
:100930009CEF04F09EEF04F0C5EF04F0DFBFACEFD6
:1009400004F0DF5107E1150EDE5DD8B0AAEF04F028
:10095000ACEF04F0C5EF04F0000E0F6E010E106E48
:10096000680E116E010E126ED0C113F0D1C114F0D9
:10097000D2C115F0D3C116F054EC08F00101DE51DC
:100980000F24DE6FDF511020DF6FDA51DB11D8B496
:10099000CCEF04F0CEEF04F032EF05F0000E086E5D
:1009A000040E076E43EC0BF0C00E02EC0EF0030ECB
:1009B000046EE80E036EDEC101F0DFC102F087ECC9
:1009C0000AF001C009F002C00AF0000E0C6E0A0E17
:1009D0000B6E9BEC0BF00950300FF3EC0DF0000E9A
:1009E000046E640E036EDEC101F0DFC102F087EC1D
:1009F0000AF001C009F002C00AF0000E0C6E0A0EE7
:100A00000B6E9BEC0BF00950300FF3EC0DF0000E69
:100A1000046E0A0E036EDEC101F0DFC102F087EC46
:100A20000AF001C009F002C00AF0000E0C6E0A0EB6
:100A30000B6E9BEC0BF00950300FF3EC0DF0DEC1A8
:100A400009F0DFC10AF0000E0C6E0A0E0B6E9BEC73
:100A50000BF00950300FF3EC0DF0800E02EC0EF0AD
:100A6000FBEF05F0C00E02EC0EF0030E046EE80E74
:100A7000036EDCC101F0DDC102F087EC0AF001C0B9
:100A800009F002C00AF0000E0C6E0A0E0B6E9BEC11
:100A90000BF00950300FF3EC0DF0000E046E640EF5
:100AA000036EDCC101F0DDC102F087EC0AF001C089
:100AB00009F002C00AF0000E0C6E0A0E0B6E9BECE1
:100AC0000BF00950300FF3EC0DF0000E046E0A0E1F
:100AD000036EDCC101F0DDC102F087EC0AF001C059
:100AE00009F002C00AF0000E0C6E0A0E0B6E9BECB1
:100AF0000BF00950300FF3EC0DF0DCC109F0DDC153
:100B00000AF0000E0C6E0A0E0B6E9BEC0BF00950F7
:100B1000300FF3EC0DF0800E02EC0EF0680E016E5B
:100B2000010E026EBFEC0CF00101D451D511D8B406
:100B30009CEF05F09EEF05F0FBEF05F0DFBFACEF9B
:100B400005F0DF5107E1160EDE5DD8B0AAEF05F023
:100B5000ACEF05F0BAEF05F0DFBFBAEF05F0DF51FB
:100B600007E1120EDE5DD8B0B8EF05F0BAEF05F080
:100B7000C9EF05F0000E086E010E076E43EC0BF096
:100B80000101E051DC5DDC6FE151DD59DD6FEEEF1D
:100B900005F0000E046E150E036EDEC101F0DFC11C
:100BA00002F087EC0AF0010E0124096E000E02200B
:100BB0000A6ED8900101E0350B6EE1350C6ECFEC7A
:100BC0000DF00101DC510924DC6FDD510A20DD6FDD
:100BD000000E086E020E076E43EC0BF0000E0101D2
:100BE000E16F000EE06F000EDF6F000EDE6F000E93
:100BF000D56F000ED46F010E0101D027000ED12356
:100C0000D223D32342EF03F000EF00F002BE14EF33
:100C100006F0025007E1080E015CD8B012EF06F0B2
:100C200014EF06F03EEF06F003500410D8B41BEFAB
:100C300006F01DEF06F02DEF06F001C005F0010EE5
:100C4000066E052A26EF06F0D8900636052E24EF0C
:100C500006F0065092122CEF07F001C005F0010ECD
:100C6000066E052A36EF06F0D8900636052E34EFCC
:100C700006F00650FF0A92162CEF07F002BE4CEF6A
:100C800006F0025007E1100E015CD8B04AEF06F002
:100C90004CEF06F07AEF06F003500410D8B453EF8F
:100CA00006F055EF06F067EF06F001C005F0F80E0C
:100CB0000526010E066E052A60EF06F0D89006366E
:100CC000052E5EEF06F0065093122CEF07F001C0E0
:100CD00005F0F80E0526010E066E052A72EF06F0E5
:100CE000D8900636052E70EF06F00650FF0A9316D0
:100CF0002CEF07F002BE88EF06F0025007E1180E55
:100D0000015CD8B086EF06F088EF06F0B6EF06F08B
:100D100003500410D8B48FEF06F091EF06F0A3EF64
:100D200006F001C005F0F00E0526010E066E052A3C
:100D30009CEF06F0D8900636052E9AEF06F0065086
:100D400094122CEF07F001C005F0F00E0526010EFD
:100D5000066E052AAEEF06F0D8900636052EACEFEB
:100D600006F00650FF0A94162CEF07F002BEC4EFFF
:100D700006F0025007E1200E015CD8B0C2EF06F089
:100D8000C4EF06F0F2EF06F003500410D8B4CBEF36
:100D900006F0CDEF06F0DFEF06F001C005F0E80E3B
:100DA0000526010E066E052AD8EF06F0D890063605
:100DB000052ED6EF06F0065095122CEF07F001C075
:100DC00005F0E80E0526010E066E052AEAEF06F08C
:100DD000D8900636052EE8EF06F00650FF0A951665
:100DE0002CEF07F002BE00EF07F0025007E1280EDB
:100DF000015CD8B0FEEF06F000EF07F02CEF07F033
:100E000003500410D8B407EF07F009EF07F01BEF09
:100E100007F001C005F0E00E0526010E066E052A5A
:100E200014EF07F0D8900636052E12EF07F00650A3
:100E300096122CEF07F001C005F0E00E0526010E1A
:100E4000066E052A26EF07F0D8900636052E24EF09
:100E500007F00650FF0A9616120002BE3BEF07F09D
:100E6000025007E1080E015CD8B039EF07F03BEF04
:100E700007F065EF07F003500410D8B442EF07F015
:100E800044EF07F054EF07F001C005F0010E066EC5
:100E9000052A4DEF07F0D8900636052E4BEF07F0E8
:100EA0000650801253EF08F001C005F0010E066EE7
:100EB000052A5DEF07F0D8900636052E5BEF07F0A8
:100EC0000650FF0A801653EF08F002BE73EF07F0DA
:100ED000025007E1100E015CD8B071EF07F073EF1C
:100EE00007F0A1EF07F0F80E0126FF0E02220350D3
:100EF0000410D8B47EEF07F080EF07F090EF07F012
:100F000001C005F0010E066E052A89EF07F0D890A2
:100F10000636052E87EF07F00650811253EF08F0D2
:100F200001C005F0010E066E052A99EF07F0D89072
:100F30000636052E97EF07F00650FF0A811653EF8D
:100F400008F002BEAFEF07F0025007E1180E015C97
:100F5000D8B0ADEF07F0AFEF07F0DDEF07F0F00E20
:100F60000126FF0E022203500410D8B4BAEF07F096
:100F7000BCEF07F0CCEF07F001C005F0010E066EE4
:100F8000052AC5EF07F0D8900636052EC3EF07F007
:100F90000650821253EF08F001C005F0010E066EF4
:100FA000052AD5EF07F0D8900636052ED3EF07F0C7
:100FB0000650FF0A821653EF08F002BEEBEF07F06F
:100FC000025007E1200E015CD8B0E9EF07F0EBEF2B
:100FD00007F019EF08F0E80E0126FF0E0222035079
:100FE0000410D8B4F6EF07F0F8EF07F008EF08F0B8
:100FF00001C005F0010E066E052A01EF08F0D89039
:101000000636052EFFEF07F00650831253EF08F067
:1010100001C005F0010E066E052A11EF08F0D89008
:101020000636052E0FEF08F00650FF0A831653EF21
:1010300008F002BE27EF08F0025007E1280E015C1D
:10104000D8B025EF08F027EF08F053EF08F0E00ED6
:101050000126FF0E022203500410D8B432EF08F02C
:1010600034EF08F044EF08F001C005F0010E066E01
:10107000052A3DEF08F0D8900636052E3BEF08F024
:101080000650841253EF08F001C005F0010E066E01
:10109000052A4DEF08F0D8900636052E4BEF08F0E4
:1010A0000650FF0A8416120071EF08F0D89013342E
:1010B000016E1434026E1534036E1634046E340E51
:1010C000056E000E066E000E076E000E086EF3EC45
:1010D0000BF001C00AF002C00BF0E2EC0DF011ECD5
:1010E0000EF013C001F014C002F015C003F016C0DA
:1010F00004F0340E056E000E066E000E076E000E34
:10110000086EF3EC0BF0D890013602360150112432
:10111000D96E02501220DA6EDE50DE10D8A493EFA2
:1011200008F095EF08F056EF08F013C001F014C076
:1011300002F015C003F016C004F0340E056E000E68
:10114000066E000E076E000E086EF3EC0BF0D890E2
:101150000136023601500F24D96E02501020DA6E8B
:10116000DE04DE10D8A4B7EF08F0B9EF08F0C5EF41
:1011700008F0310EF3EC0DF0300EF3EC0DF0000E34
:10118000106E0A0E0F6E36EF09F013C001F014C096
:1011900002F015C003F016C004F0340E056E000E08
:1011A000066E000E076E000E086EF3EC0BF0D89082
:1011B0000136023601500F24D96E02501020DA6E2B
:1011C000010EDBBEEEEF08F0010EDB5009E10A0E66
:1011D000DE5CD8A0EEEF08F0F0EF08F0F8EF08F0D2
:1011E000310EF3EC0DF0300EF3EC0DF0BFEF08F024
:1011F00013C001F014C002F015C003F016C004F0D3
:10120000340E056E000E066E000E076E000E086EA0
:10121000F3EC0BF0D8900136023601500F24D96E52
:1012200002501020DA6EDF50300FF3EC0DF013C0D7
:1012300001F014C002F015C003F016C004F0340E23
:10124000056E000E066E000E076E000E086EF3ECC3
:101250000BF0D8900136023601500F24D96E02509F
:101260001020DA6EDECF0FF0DDCF10F0120002BEDC
:1012700045EF09F0025007E1080E015CD8B043EFDA
:1012800009F045EF09F059EF09F001C003F0010E34
:10129000046E032A4EEF09F0D8900436032E4CEF6B
:1012A00009F004508014056E0550016E026AEBEFE0
:1012B00009F002BE67EF09F0025007E1100E015C71
:1012C000D8B065EF09F067EF09F07DEF09F001C0D4
:1012D00003F0F80E0326010E046E032A72EF09F0E4
:1012E000D8900436032E70EF09F004508114056E77
:1012F0000550016E026AEBEF09F002BE8BEF09F0B8
:10130000025007E1180E015CD8B089EF09F08BEFAD
:1013100009F0A1EF09F001C003F0F00E0326010E61
:10132000046E032A96EF09F0D8900436032E94EF4A
:1013300009F004508214056E0550016E026AEBEF4D
:1013400009F002BEAFEF09F0025007E1200E015C88
:10135000D8B0ADEF09F0AFEF09F0C5EF09F001C06B
:1013600003F0E80E0326010E046E032ABAEF09F01B
:10137000D8900436032EB8EF09F004508314056E9C
:101380000550016E026AEBEF09F002BED3EF09F0DF
:10139000025007E1280E015CD8B0D1EF09F0D3EF7D
:1013A00009F0E9EF09F001C003F0E00E0326010E99
:1013B000046E032ADEEF09F0D8900436032EDCEF2A
:1013C00009F004508414056E0550016E026AEBEFBB
:1013D00009F0016802681200000E206E000E1F6EF8
:1013E000000E0E6E000E0D6E0EBE00EF0AF00E50D7
:1013F00009E1050E0D5CD8A000EF0AF002EF0AF03B
:1014000004EF0AF065EF0AF00DC00AF0030E0A2699
:10141000010E0B6E000E0C6E0A2A12EF0AF0D89025
:101420000B360C360A2E0FEF0AF00BC007F00CC07B
:1014300008F098EC0CF0000E026E0A0E016E37EC0C
:1014400009F001500210D8B428EF0AF02AEF0AF090
:101450003DEF0AF00DC00AF0010E0B6E000E0C6E8F
:101460000A2A36EF0AF0D8900B360C360A2E33EFE4
:101470000AF00B501F120C502012000E026E090EC3
:10148000016E37EC09F001500210D8B44AEF0AF0AF
:101490004CEF0AF061EF0AF00DC00AF0050E0A26C3
:1014A000010E0B6E000E0C6E0A2A5AEF0AF0D8904D
:1014B0000B360C360A2E57EF0AF00B501F120C5049
:1014C00020120D4A0E2AF4EF09F01F501D1807E1F3
:1014D00020501E18D8A46FEF0AF071EF0AF074EFD5
:1014E0000AF028067AEF0AF0010E286E1FC01DF0E0
:1014F00020C01EF02850D8A480EF0AF082EF0AF036
:1015000086EF0AF01DC021F01EC022F01200000E6E
:10151000066E04BE90EF0AF08EEF0AF096EF0AF026
:10152000036C041ED8B0042A010E066E02BE9DEFA5
:101530000AF09BEF0AF0A3EF0AF0016C021ED8B08C
:10154000022A010E061A000E086E000E076E0350E6
:101550000410D8B4AEEF0AF0B0EF0AF0D8EF0AF0FA
:10156000010E056EB8EF0AF0D89003360436052A4E
:1015700004AEBDEF0AF0BFEF0AF0B4EF0AF0D89066
:10158000073608360350015C04500258D8A0CBEF50
:101590000AF0CDEF0AF0D2EF0AF00350015E0450DA
:1015A000025A0780D89004320332052EBFEF0AF0AA
:1015B0000650D8B4DEEF0AF0E0EF0AF0E4EF0AF0EC
:1015C000076C081ED8B0082A07C001F008C002F056
:1015D0001200000E026E1C0E016E000E046E000E54
:1015E000036E06EC06F0000E026E1D0E016E000E7C
:1015F000046E000E036E06EC06F042EC0DF0000ED9
:10160000026E0F0E016E7AEC0DF0000E0B6E000EE6
:101610000A6E030EBCEC0DF0000E026E050E016E9C
:101620007AEC0DF0000E0B6E000E0A6E030EBCEC91
:101630000DF0000E026EA00E016E22EC0EF0000EF8
:101640000B6E000E0A6E030EBCEC0DF0000E026E67
:10165000A00E016E22EC0EF0000E0B6E000E0A6E54
:10166000020EBCEC0DF0000E026E0A0E016E7AEC5A
:101670000DF0280E02EC0EF00C0E02EC0EF0010E36
:1016800002EC0EF0120007A048EF0BF04AEF0BF04F
:1016900056EF0BF0000E026E180E016E000E046E77
:1016A000010E036E2DEC07F060EF0BF0000E026EE2
:1016B000180E016E000E046E000E036E2DEC07F086
:1016C00007A265EF0BF067EF0BF073EF0BF0000E66
:1016D000026E190E016E000E046E010E036E2DECEB
:1016E00007F07DEF0BF0000E026E190E016E000E7A
:1016F000046E000E036E2DEC07F007A482EF0BF0D2
:1017000084EF0BF090EF0BF0000E026E1A0E016EDC
:10171000000E046E010E036E2DEC07F09AEF0BF035
:10172000000E026E1A0E016E000E046E000E036EA5
:101730002DEC07F01200000E0E6E0ABEA4EF0BF0A7
:10174000A2EF0BF0AAEF0BF0096C0A1ED8B00A2A20
:10175000010E0E6E0CBEB1EF0BF0AFEF0BF0B5EF5C
:101760000BF00B6C0C1ED8B00C2A0B500C10D8B41C
:10177000BCEF0BF0BEEF0BF0E2EF0BF0010E0D6EC5
:10178000C6EF0BF0D8900B360C360D2A0CAECBEF13
:101790000BF0CDEF0BF0C2EF0BF00B50095C0C50CF
:1017A0000A58D8A0D6EF0BF0D8EF0BF0DCEF0BF017
:1017B0000B50095E0C500A5AD8900C320B320D2E89
:1017C000CDEF0BF00E50D8B4E8EF0BF0EAEF0BF0D2
:1017D000EEEF0BF0096C0A1ED8B00A2A09C009F016
:1017E0000AC00AF012000550061007100810D8B4FD
:1017F000FCEF0BF0FEEF0BF02EEF0CF0010E096E7C
:1018000008EF0CF0D8900536063607360836092A58
:1018100008AE0DEF0CF00FEF0CF002EF0CF00550DE
:10182000015C065002580750035808500458D8A0CD
:101830001CEF0CF01EEF0CF026EF0CF00550015ED3
:101840000650025A0750035A0850045AD8900832DA
:10185000073206320532092E0FEF0CF001C001F0FD
:1018600002C002F003C003F004C004F01200010043
:10187000010001000100020002000200020003005A
:10188000030003000300040004000400040005003A
:10189000050005000500060006000600060007001A
:1018A00007000700070008000800080008000900FA
:1018B0000900090009000A000A000A000A000B00DA
:1018C0000B000B000B000C000C000C000C000D00BA
:1018D0000D000D000D000D6E0DC00CF00C3A0F0E3A
:1018E0000C160C50076E086A98EC0CF0000E026E95
:1018F0001D0E016E0AC003F00BC004F02DEC07F0C2
:1019000002EC0DF00DC00CF00F0E0C160C50076E13
:10191000086A98EC0CF0000E026E1D0E016E0AC0F3
:1019200003F00BC004F02DEC07F002EC0DF01200F8
:10193000000E026E080E016E000E046E000E036EA5
:101940002DEC07F0000E096E000E026E1E0E016EE9
:10195000800E0714036E046A2DEC07F0A7EC0DF05F
:10196000D89007360836092A070E0964BAEF0CF03A
:10197000BCEF0CF0A4EF0CF092EC0DF01200000E96
:10198000046E000E036ED8900334D96E0434DA6E00
:101990000150D9260250DA22000EDE6E000EDD6EF6
:1019A000034A042A04BEDEEF0CF0045009E1340EB1
:1019B000035CD8A0DEEF0CF0E0EF0CF0C3EF0CF00E
:1019C00012006E0EF66E180EF76E000EF86E00EE38
:1019D00080F010EE68F00900F5CFEEFFE550E15021
:1019E000FAE102EE00F0680EEE6AE806FDE100EEB4
:1019F0001DF00C0EEE6AE806FDE1000EF86E000127
:101A00000EEF03F0000E026E1C0E016E000E046E4F
:101A1000010E036E2DEC07F0000E026E050E016E36
:101A200022EC0EF0000E026E1C0E016E000E046E13
:101A3000000E036E2DEC07F0000E026E050E016E17
:101A400022EC0EF01200000E026E180E016E000E57
:101A5000046E000E036E06EC06F0000E026E190E08
:101A6000016E000E046E000E036E06EC06F0000E12
:101A7000026E1A0E016E000E046E000E036E06EC6E
:101A800006F01200000E026E1F0E016E000E046EB4
:101A9000000E036E06EC06F0000E026E080E016EDC
:101AA000000E046E000E036E06EC06F0000E026ED1
:101AB0001E0E016E000E046E000E036E06EC06F0A4
:101AC000120042EC0DF0000E026E0A0E016E000EC6
:101AD000046E010E036E06EC06F0000E026E090E97
:101AE000016E000E046E010E036E06EC06F00C0E85
:101AF000C16E1200000E056E000E046E82EF0DF036
:101B0000044A052A0150045C0550800A036E025005
:101B1000800A0358D8A08FEF0DF091EF0DF080EF01
:101B20000DF01200000E026E1F0E016E000E046E0C
:101B3000010E036E2DEC07F0000E026E1F0E016EFB
:101B4000000E046E000E036E2DEC07F01200000E66
:101B5000026E080E016E000E046E010E036E2DEC77
:101B600007F0000E026E080E016E000E046E000EED
:101B7000036E2DEC07F012000C6E0CC007F0086A23
:101B800098EC0CF0000E026E1D0E016E0AC003F000
:101B90000BC004F02DEC07F002EC0DF01200095020
:101BA0000B02F3CF0DF0F4CF0EF009500C02F350FE
:101BB0000E260A500B02F3500E260DC009F00EC07F
:101BC0000AF01200D8900A340C6E0B340D6E0C1E05
:101BD0000D1E320E0C5E000E0D5A0D50D76E0CC04D
:101BE000D6FFF29412000E6E000E0B6E010E0A6EFE
:101BF0000E506BEC0CF0000E026E500E016E22ECDB
:101C00000EF012000E6E000E0B6E000E0A6E0E50DD
:101C10006BEC0CF0000E026E020E016E7AEC0DF011
:101C20001200F2A416EF0EF018EF0EF011EF0EF006
:101C3000120021C001F022C002F01200080ED56E81
:061C4000D58E1200120017
:020000040020DA
:08000000FFFFFFFFFFFFFFFF00
:020000040030CA
:0E000000FF027100FF8380FF0FC00FE00F4072
:00000001FF
